:0400000061EF00F0BC
:100008003F82FACF0EF0FBCF0FF0E9CF10F0EACF26
:1000180011F0E1CF12F0E2CF13F0D9CF14F0DACF1C
:1000280015F0F3CF16F0F4CF17F0F6CF18F0F7CF9E
:1000380019F0F8CF1AF0F5CF1BF03FC01CF040C004
:100048001DF041C01EF042C01FF09EAA10D0AECFD6
:1000580020F009D0690E096E000E0A6E000E0B6EB4
:1000680041EC08F004D02050750AD8B4F3D71FC06B
:1000780042F01EC041F01DC040F01CC03FF01BC044
:10008800F5FF1AC0F8FF19C0F7FF18C0F6FF17C030
:10009800F4FF16C0F3FF15C0DAFF14C0D9FF13C070
:1000A800E2FF12C0E1FF11C0EAFF10C0E9FF0FC074
:0E00B800FBFF0EC0FAFF3F921100CEEF08F0E2
:100600000000000000803FF0FFBEE2A93E8376BEFE
:10061000AE2B3E3CC3BDD2133D78D3BB4D616E754E
:10062000616C004144433A0049646C650041757453
:030630006F000058
:100634006BC06FF00001706B716B6A356F3701E34B
:1006440070816F51746F6EC06FF0706B716B6D352C
:100654006F3701E370816F51736F7451D8B40BD04D
:100664007351745DD8B00ED07451000873256F6F48
:10067400180E6F6507D06CC069F06DC06AF06EC06B
:100684006BF012007351D8B40BD07451735DD8B0B1
:100694000ED07351000874256F6F180E6F6507D064
:1006A40069C069F06AC06AF06BC06BF01200060E94
:1006B400726F6BBF728F6EBF728D6A8FFF0E691778
:1006C400FF0E6A17000E6B176D8FFF0E6C17FF0E6F
:1006D4006D17000E6E177351745DD8B01BD0D8908F
:1006E4006C376D376E37730774517319D8B40DD0E6
:1006F400720772C06FF0070E6F17D8B406D0EFD729
:10070400D8906B336A336933742B73517419D8B42A
:100714001FD0F6D77451735DD8B01AD0D89069370A
:100724006A376B37740774517319D8B40DD07207D4
:1007340072C06FF0070E6F17D8B406D0EFD7D890F9
:100744006E336D336C33732B73517419D8A4F7D78C
:1007540072AF0CD0FF0E691BFF0E6A1BFF0E6B1BE2
:10076400010E6927000E6A23000E6B2372AD0CD0B4
:10077400FF0E6C1BFF0E6D1BFF0E6E1B010E6C2714
:10078400000E6D23000E6E23000E726F69516C27EC
:100794006A516D236B516E236EAF0ED0FF0E6C1B2E
:1007A400FF0E6D1BFF0E6E1B010E6C27000E6D23DA
:1007B400000E6E23010E726F6CC021F06DC022F02A
:1007C4006EC023F074C024F072C025F0ACEC06F0C7
:1007D40021C069F022C06AF023C06BF0120000014E
:1007E40083AF0BD0000EA56F210EA46F000E816F96
:1007F400000E826F000E836F1200815182118311EB
:10080400D8A40BD0000EA56F220EA46F000E816F2A
:10081400000E826F000E836F1200000E366E000E03
:10082400376E400E386E840E246E000E256E81C025
:1008340021F082C022F083C023F04CEC07F021C0E9
:1008440033F022C034F023C035F0FDEC04F033C0A3
:1008540069F034C06AF035C06BF0000E00016C6FB3
:10086400800E6D6FBF0E6E6F1AEC03F069C081F0DD
:100874006AC082F06BC083F000018407D8A08507AA
:1008840081C075F082C076F083C077F0010E786F76
:10089400060E796F000E7B6F080E7A6F78EC05F008
:1008A40075C081F076C082F077C083F0720E366E28
:1008B400310E376E3F0E386E84C02FF085C030F095
:1008C400EAEC08F02FC033F030C034F031C035F01A
:1008D400FDEC04F033C069F034C06AF035C06BF04D
:1008E40081C06CF082C06DF083C06EF01AEC03F02E
:1008F40069C081F06AC082F06BC083F0120088C0C6
:100904008AF000018B6B8C6B87358A3701E38B810E
:100914008A51946F9451D8A409D0000E866F000EAA
:10092400876F000E886F000E896F1200170E8A6F92
:1009340086C08BF087C08CF088C08DF08A298E6FBA
:1009440004D0D8908D338C338B338E2FFAD700019B
:100954008B518F6F878FFF0E8617FF0E8717000E40
:1009640088178651906F8751916F8851926F936B5E
:100974008E0E945F94AF16D09451800A8F0FD8B026
:1009840009D0000E866F000E876F000E886F000E70
:10099400896F1200D8909333923391339033943FFC
:1009A400F9D715D0170E94650FD0000E866F000E80
:1009B400876F000E886F000E896F1200D8909037F1
:1009C40091379237933794079451D8A4F7D78F511E
:1009D400D8B408D0931F921F911F906D000E9123DD
:1009E4009223932390C086F091C087F092C088F040
:1009F40093C089F0120035C060F00001616B626B36
:100A04003434603701E361816051636F6351D8A46A
:100A140007D0000E336E000E346E000E356E1200D9
:100A240038C060F0616B626B3734603701E3618119
:100A34006051686F6851D8A407D0000E336E000E61
:100A4400346E000E356E120068517B0F632735C07B
:100A540068F03850681B800E6817348E378EFF0E8E
:100A64003616FF0E3716000E3816000E646F000E91
:100A7400656F000E666F070E676F33A006D03650A1
:100A840064273750652338506623D8903532343282
:100A94003332D890363637363836672FEED7090ECC
:100AA400676F33A006D0365064273750652338501B
:100AB4006623D890353234323332D8906633653376
:100AC4006433672FEED764C021F065C022F066C09E
:100AD40023F063C024F068C025F0ACEC06F021C01C
:100AE40033F022C034F023C035F012007AC02FF066
:100AF4007BC030F0000E326E030E316E67EC09F0ED
:100B040078C07CF079C07DF02F5000017C273050F4
:100B14007D237CC0F6FF7DC0F7FF0900F5CF7EF092
:100B24000900F5CF7FF00A00F5CF80F040D07EC0F9
:100B340036F07FC037F080C038F075C033F076C02F
:100B440034F077C035F0FDEC04F033C069F034C004
:100B54006AF035C06BF0000E326E030E316E000188
:100B64007A07D8A07B077AC02FF07BC030F067ECFF
:100B740009F078C07CF079C07DF02F5000017C270B
:100B840030507D237CC0F6FF7DC0F7FF0900F5CF10
:100B94006CF00900F5CF6DF00A00F5CF6EF01AEC99
:100BA40003F069C07EF06AC07FF06BC080F0000182
:100BB4007A517B11D8A4BBD77EC075F07FC076F084
:100BC40080C077F01200000E226EC80E216E22EC57
:100BD40009F0030E836E000E226E020E216E22ECCB
:100BE40009F0B0EC09F0000E226E190E216E22EC11
:100BF40009F0B0EC09F0000E226E190E216E22EC01
:100C040009F0B0EC09F0020E836E000E226E020EA3
:100C1400216E22EC09F0B0EC09F0000E226E190EE0
:100C2400216E22EC09F0080EA4EC09F0000E226EED
:100C3400FA0E216E22EC09F0280EA4EC09F0000E45
:100C4400226EFA0E216E22EC09F0140EA4EC09F0C7
:100C5400000E226EFA0E216E22EC09F0060EA4ECB0
:100C640009F0000E226EFA0E216E22EC09F0800EBD
:100C7400A4EC09F0000E226EFA0E216E22EC09F0AB
:100C8400CAEC09F00C0EA4EC09F0000E226EFA0E68
:100C9400216E22EC09F0120035C027F036C028F08E
:100CA400030E2A6EE80E296E94EC07F0275000011B
:100CB400606F60C02FF0306A030E326EE80E316E42
:100CC40067EC09F0010E2F26000E30222F1E301E75
:100CD4002F4A302A35502F24276E36503020286E64
:100CE400000E2A6E640E296E94EC07F02750000162
:100CF400616F6151300F98EC09F0000E246E640EA0
:100D0400236E35C021F036C022F0D6EC07F021C0A6
:100D140027F022C028F0000E2A6E0A0E296E94ECE9
:100D240007F027500001626F6251300F98EC09F010
:100D340035C021F036C022F0000E246E0A0E236E58
:100D4400D6EC07F021500001636F6351300F98EC2B
:100D540009F012002450D8B405D0215022102310D9
:100D6400D8A40CD0000E216E000E226E000E236E4D
:100D74001200242AD890233222322132000E211468
:100D8400266E000E2214276EFE0E2314286E2650A3
:100D940027102810D8B40CD0ECD7242A010E212611
:100DA400000E2222000E2322D89023322232213236
:100DB400000E2114266E000E2214276EFF0E23143B
:100DC400286E265027102810D8B406D0E6D724065B
:100DD400D89021362236233622BE03D0020E246058
:100DE400F6D724A0229ED8902432245023122550D2
:100DF400D8A4238E21C021F022C022F023C023F0E6
:100E0400120039503A10D8A409D0CAEC09F0280EBF
:100E1400276E060E286E0EEC08F01200CAEC09F0DC
:100E2400000E226E010E216E22EC09F00F0E276EC9
:100E3400010E8CEC09F0000E226E010E216E22ECE4
:100E440009F0B9EC09F0000E226E010E216E22ECBD
:100E540009F0000E276E000E8CEC09F0000E226ED5
:100E6400010E216E22EC09F054EC09F0000E226E02
:100E7400010E216E22EC09F0000E276E090E8CEC97
:100E840009F0000E226E010E216E22EC09F07AECBC
:100E940009F01200215022102310D8A40FD024C02E
:100EA400D9FF25C0DAFF000EDE6E000EDD6E000EE7
:100EB400216E000E226E000E236E120023507F0B53
:100EC400266E276AD8902636273624C0D9FF25C037
:100ED400DAFF26C0DEFF27C0DDFF22AE03D0266A7C
:100EE400262A01D0266A265024C0D9FF25C0DAFF5D
:100EF400DE12000EDD1224C0D9FF25C0DAFF820EF7
:100F0400DE26FF0EDD22238023822384238623888A
:100F1400238A239C229E21C021F022C022F023C0D8
:100F240023F01200000E2C6E2AAE06D0296C2A1E65
:100F3400D8B02A2A010E2C6E28AE06D0276C281EA3
:100F4400D8B0282A010E2C1A000E2E6E000E2D6E1B
:100F540029502A10D8B41CD0010E2B6E04D0D8907E
:100F640029362A362B2A2AAEFAD7D8902D362E3691
:100F74002950275C2A502858D8A005D02950275E2C
:100F84002A50285A2D80D8902A3229322B2EEDD778
:100F94002C50D8B404D02D6C2E1ED8B02E2A2DC0BF
:100FA40027F02EC028F01200000E266E22AE06D0C6
:100FB400216C221ED8B0222A010E266E24AE04D043
:100FC400236C241ED8B0242A23502410D8B418D05B
:100FD400010E256E04D0D89023362436252A24AE5B
:100FE400FAD72350215C24502258D8A004D023508F
:100FF400215E2450225AD89024322332252EF1D750
:101004002650D8B404D0216C221ED8B0222A21C084
:1010140021F022C022F01200000E226E010E216E79
:1010240022EC09F0000E2B6E130E2B6401D012007B
:101034002B50010D27C029F028C02AF0F35029268F
:10104400F4502A2229C0F6FF2AC0F7FF0800F55001
:101054000009D8B412002B50010D27C029F028C074
:101064002AF0F3502926F4502A2229C0F6FF2AC078
:10107400F7FF0800F55098EC09F02B2AD5D709C0E2
:1010840001F00AC002F00BC003F069EC08F001C0E3
:101094000CF002C00DF014D09EB8FED709C0F6FFC4
:1010A4000AC0F7FF0BC0F8FF0800F5CFADFF010E33
:1010B4000926000E0A22000E0B220C06D8A00D06EB
:1010C4000C500D10D8A4E8D7ACB21200FDD701C063
:1010D40006F002C007F003C008F006D0010E062691
:1010E400000E0722000E082206C0F6FF07C0F7FF15
:1010F40008C0F8FF0800F5500009D8A4EFD701C0D4
:1011040004F002C005F0041E051E044A052A065018
:101114000424016E07500520026E12009280928210
:10112400928492867E807E827E847E86000E226EEB
:10113400020E216E22EC09F0000EC16E000E226E2A
:10114400020E216E22EC09F02B0EC06E000E226EF0
:10115400020E216E22EC09F01200256E000E226EA2
:10116400010E216E22EC09F025380F0B0F0B836E54
:10117400B0EC09F0000E226E050E216E22EC09F08F
:1011840025500F0B836EB0EC09F0000E226E010E99
:10119400216E22EC09F01200A20EF66E130EF76E09
:1011A400000EF86E00EE39F010EE04F00900F5CFF1
:1011B400EEFFE550E150FAE10001A56BA46B3E6A35
:1011C4003D6A3F903F92000EF86E00013DEF09F03A
:1011D400000E326E30AE06D02F6C301ED8B0302ADE
:1011E400010E326E2FC021F030C022F0236A8E0E21
:1011F400246E32C025F0ACEC06F021C02FF022C0E2
:1012040030F023C031F01200CAEC09F0000E226E57
:10121400050E216E22EC09F00B0EC26ECEEC09F025
:10122400C4CF37F0386A230E276E060E286E0EECF4
:1012340008F037C035F038C036F04EEC06F0120036
:1012440022BE1200225004E1020E215CD8A012003A
:10125400000E246E000E236E24BE06D0245007E137
:101264006F0E235CD8B003D0234A242AF5D7210675
:10127400D8A02206E5D7D398D38AD38CD382C6ECE0
:1012840009F0750AD8A4FBD79EA8FED7700EAD6EE0
:10129400F6D706EC09F0000E226E640E216E22ECE5
:1012A40009F0F7D7C0EC09F095C0A0F096C0A1F002
:1012B400A0C035F0A1C036F04EEC06F0DF0E98EC7D
:1012C40009F0430E98EC09F012002F503102F3CFCD
:1012D40033F0F4CF34F02F503202F3503426305030
:1012E4003102F350342633C02FF034C030F01200F2
:1012F4003D503E10D8A407D02D0E276E060E286E42
:101304000EEC08F012001C0E276E060E286E0EEC72
:1013140008F01200286E280E286012002750D8A466
:10132400288C288E2850A4EC09F01200266E8280A6
:10133400000E226E010E216E22EC09F02650AFEC55
:1013440008F01200266E8290000E226E010E216EAD
:1013540022EC09F02650AFEC08F012008282000E55
:10136400226E020E216E22EC09F0829212003BC022
:1013740035F03CC036F04EEC06F01200000E0001D1
:10138400966F1B0E956F12009EAAFED7AE501200E8
:10139400010EA4EC09F01200C2A21200FDD7010054
:0213A400010046
:020000040020DA
:08000000FFFFFFFFFFFFFFFF00
:020000040030CA
:0E000000FF081F1EFF8B80FF0FC00FE00F4098
:00000001FF
