:0400000035EF08F0E0
:100600000000000000803FF0FFBEE2A93E8376BEFE
:10061000AE2B3E3CC3BDD2133D78D3BB4D616E754E
:10062000616C004144433A0049646C650041757453
:030630006F000058
:1006340024C028F0296A2A6A2334283601E3298051
:1006440028502D6E27C028F0296A2A6A26342836B5
:1006540001E3298028502C6E2D50D8B40BD02C5097
:100664002D5CD8B00ED02D5000082C24286E180E06
:10067400286407D025C022F026C023F027C024F028
:1006840012002C50D8B40BD02D502C5CD8B00ED006
:100694002C5000082D24286E180E286407D022C080
:1006A40022F023C023F024C024F01200060E2B6E87
:1006B40024BE2B8E27BE2B8C238EFF0E2216FF0EFC
:1006C4002316000E2416268EFF0E2516FF0E261660
:1006D400000E27162C502D5CD8B01BD0D890253690
:1006E400263627362C062D502C18D8B40DD02B06C0
:1006F4002BC028F0070E2816D8B406D0EFD7D89010
:100704002432233222322D2A2C502D18D8B41FD053
:10071400F6D72D502C5CD8B01AD0D8902236233678
:1007240024362D062D502C18D8B40DD02B062BC0F2
:1007340028F0070E2816D8B406D0EFD7D890273261
:10074400263225322C2A2C502D18D8A4F7D72BAEBC
:100754000CD0FF0E221AFF0E231AFF0E241A010ECC
:100764002226000E2322000E24222BAC0CD0FF0ED6
:10077400251AFF0E261AFF0E271A010E2526000E33
:100784002622000E2722000E2B6E225025262350EF
:1007940026222450272227AE0ED0FF0E251AFF0E44
:1007A400261AFF0E271A010E2526000E2622000EF9
:1007B4002722010E2B6E25C001F026C002F027C0AF
:1007C40003F02DC004F02BC005F09FEC06F001C02F
:1007D40022F002C023F003C024F012003CAE0CD07F
:1007E400000E0001616F210E606F000E3A6E000E64
:1007F4003B6E000E3C6E12003A503B103C10D8A4E5
:100804000CD0000E0001616F220E606F000E3A6E74
:10081400000E3B6E000E3C6E1200000E166E000EB3
:10082400176E400E186E3D0E046E000E056E3AC033
:1008340001F03BC002F03CC003F040EC07F001C003
:1008440013F002C014F003C015F07FEC04F013C0E1
:1008540022F014C023F015C024F0000E256E800E83
:10086400266EBF0E276E1AEC03F022C03AF023C0A6
:100874003BF024C03CF03D06D8A03E063AC02EF022
:100884003BC02FF03CC030F0010E316E060E326ECC
:10089400000E346E080E336E73EC05F02EC03AF081
:1008A4002FC03BF030C03CF0720E166E310E176E46
:1008B4003F0E186E3DC00FF03EC010F0B7EC08F0CC
:1008C4000FC013F010C014F011C015F07FEC04F049
:1008D40013C022F014C023F015C024F03AC025F050
:1008E4003BC026F03CC027F01AEC03F022C03AF0DB
:1008F40023C03BF024C03CF0120015C019F01A6A62
:100904001B6A1434193601E31A8019501C6E1C50EA
:10091400D8A407D0000E136E000E146E000E156ED0
:10092400120018C019F01A6A1B6A1734193601E349
:100934001A801950216E2150D8A407D0000E136ECE
:10094400000E146E000E156E120021507B0F1C2633
:1009540015C021F01850211A800E2116148E178EFE
:10096400FF0E1616FF0E1716000E1816000E1D6E3B
:10097400000E1E6E000E1F6E070E206E13A006D012
:1009840016501D2617501E2218501F22D8901532BB
:1009940014321332D890163617361836202EEED766
:1009A400090E206E13A006D016501D2617501E22C5
:1009B40018501F22D890153214321332D8901F3297
:1009C4001E321D32202EEED71DC001F01EC002F0D3
:1009D4001FC003F01CC004F021C005F09FEC06F01A
:1009E40001C013F002C014F003C015F0120041C09E
:1009F40043F0446A456A4034433601E3448043503B
:100A04004D6E4D50D8A409D0000E3F6E000E406EBE
:100A1400000E416E000E426E1200170E436E3FC070
:100A240044F040C045F041C046F04328476E04D02E
:100A3400D890463245324432472EFAD74450486E55
:100A4400408EFF0E3F16FF0E4016000E41163F501B
:100A5400496E40504A6E41504B6E4C6A8E0E4D5E4C
:100A64004DAE16D04D50800A8F0FD8B009D0000E6D
:100A74003F6E000E406E000E416E000E426E12007C
:100A8400D8904C324B324A3249324D3EF9D715D0C8
:100A9400170E4D640FD0000E3F6E000E406E000E18
:100AA400416E000E426E1200D89049364A364B36DB
:100AB4004C364D064D50D8A4F7D74850D8B408D07A
:100AC4004C1E4B1E4A1E496C000E4A224B224C22DD
:100AD40049C03FF04AC040F04BC041F04CC042F026
:100AE400120033C00FF034C010F0000E126E030E6B
:100AF400116E30EC09F031C035F032C036F00F50D1
:100B040035261050362235C0F6FF36C0F7FF0900EF
:100B1400F5CF37F00900F5CF38F00A00F5CF39F0FA
:100B24003ED037C016F038C017F039C018F02EC0C8
:100B340013F02FC014F030C015F07FEC04F013C094
:100B440022F014C023F015C024F0000E126E030E20
:100B5400116E3306D8A0340633C00FF034C010F041
:100B640030EC09F031C035F032C036F00F50352684
:100B74001050362235C0F6FF36C0F7FF0900F5CF16
:100B840025F00900F5CF26F00A00F5CF27F01AEC7E
:100B940003F022C037F023C038F024C039F03350BA
:100BA4003410D8A4BED737C02EF038C02FF039C0C7
:100BB40030F01200000E026EC80E016EEFEC08F069
:100BC400030E836E000E026E020E016EEFEC08F04F
:100BD40067EC09F0000E026E190E016EEFEC08F0DE
:100BE40067EC09F0000E026E190E016EEFEC08F0CE
:100BF40067EC09F0020E836E000E026E020E016EA7
:100C0400EFEC08F067EC09F0000E026E190E016EAD
:100C1400EFEC08F0080E5BEC09F0000E026EFA0E21
:100C2400016EEFEC08F0280E5BEC09F0000E026E8A
:100C3400FA0E016EEFEC08F0140E5BEC09F0000EF6
:100C4400026EFA0E016EEFEC08F0060E5BEC09F092
:100C5400000E026EFA0E016EEFEC08F0800E5BECF3
:100C640009F0000E026EFA0E016EEFEC08F080EC53
:100C740009F00C0E5BEC09F0000E026EFA0E016E28
:100C8400EFEC08F0120015C007F016C008F0030ED0
:100C94000A6EE80E096E88EC07F00750176E17C04D
:100CA4000FF0106A030E126EE80E116E30EC09F0AC
:100CB400010E0F26000E10220F1E101E0F4A102ABE
:100CC40015500F24076E16501020086E000E0A6E81
:100CD400640E096E88EC07F00750186E1850300F38
:100CE4004FEC09F0000E046E640E036E15C001F0A3
:100CF40016C002F0CAEC07F001C007F002C008F009
:100D0400000E0A6E0A0E096E88EC07F00750196E81
:100D14001950300F4FEC09F015C001F016C002F065
:100D2400000E046E0A0E036ECAEC07F001501A6E30
:100D34001A50300F4FEC09F012000450D8B405D00B
:100D4400015002100310D8A40CD0000E016E000E46
:100D5400026E000E036E1200042AD890033202328F
:100D64000132000E0114066E000E0214076EFE0E10
:100D74000314086E065007100810D8B40CD0ECD732
:100D8400042A010E0126000E0222000E0322D8902E
:100D9400033202320132000E0114066E000E0214F8
:100DA400076EFF0E0314086E065007100810D8B41F
:100DB40006D0E6D70406D89001360236033602BEC2
:100DC40003D0020E0460F6D704A0029ED890043229
:100DD400045003120550D8A4038E01C001F002C0D0
:100DE40002F003C003F01200000164516511D8A49D
:100DF40009D080EC09F0280E076E060E086E02EC8E
:100E040008F0120080EC09F0000E026E010E016E73
:100E1400EFEC08F00F0E076E010E43EC09F0000E24
:100E2400026E010E016EEFEC08F070EC09F0000E9A
:100E3400026E010E016EEFEC08F0000E076E000E5C
:100E440043EC09F0000E026E010E016EEFEC08F0A7
:100E54000AEC09F0000E026E010E016EEFEC08F0D0
:100E6400000E076E090E43EC09F0000E026E010E2F
:100E7400016EEFEC08F01DEC09F0120001500210B5
:100E84000310D8A40FD004C0D9FF05C0DAFF000EA8
:100E9400DE6E000EDD6E000E016E000E026E000EA0
:100EA400036E120003507F0B066E076AD890063655
:100EB400073604C0D9FF05C0DAFF06C0DEFF07C04D
:100EC400DDFF02AE03D0066A062A01D0066A065088
:100ED40004C0D9FF05C0DAFFDE12000EDD1204C023
:100EE400D9FF05C0DAFF820EDE26FF0EDD22038065
:100EF4000382038403860388038A039C029E01C041
:100F040001F002C002F003C003F01200000E0C6EE8
:100F14000AAE06D0096C0A1ED8B00A2A010E0C6E5D
:100F240008AE06D0076C081ED8B0082A010E0C1AA9
:100F3400000E0E6E000E0D6E09500A10D8B41CD0AF
:100F4400010E0B6E04D0D89009360A360B2A0AAE6D
:100F5400FAD7D8900D360E360950075C0A50085857
:100F6400D8A005D00950075E0A50085A0D80D890C1
:100F74000A3209320B2EEDD70C50D8B404D00D6CC4
:100F84000E1ED8B00E2A0DC007F00EC008F01200D5
:100F9400000E066E02AE06D0016C021ED8B0022A04
:100FA400010E066E04AE04D0036C041ED8B0042AED
:100FB40003500410D8B418D0010E056E04D0D89094
:100FC40003360436052A04AEFAD70350015C0450F4
:100FD4000258D8A004D00350015E0450025AD8909D
:100FE40004320332052EF1D70650D8B404D0016C74
:100FF400021ED8B0022A01C001F002C002F01200A1
:10100400000E026E010E016EEFEC08F0000E0B6E86
:10101400130E0B6401D012000B50010D07C009F030
:1010240008C00AF0F3500926F4500A2209C0F6FF5A
:101034000AC0F7FF0800F5500009D8B412000B509D
:10104400010D07C009F008C00AF0F3500926F45056
:101054000A2209C0F6FF0AC0F7FF0800F5504FEC5A
:1010640009F00B2AD5D7100EF66E130EF76E000E8C
:10107400F86E0900F5CF64F00900F5CF65F00E0EA7
:10108400F66E130EF76E000EF86E0900F5CF5DF0E4
:101094000900F5CF5EF00001636B626B616B606BFE
:1010A400000EF86E060EF76E000159EF08F0949CDE
:1010B400948E200EAC6E900EAB6EB896D398D38AF5
:1010C400D38CD3820C0EAF6E7CEC09F0750AD8A4D5
:1010D400FBD79EA8FED7700EAD6EF6D7D3EC08F002
:1010E400000E026E640E016EEFEC08F0F7D79280EA
:1010F4009282928492867E807E827E847E86000E98
:10110400026E020E016EEFEC08F0000EC16E000ECE
:10111400026E020E016EEFEC08F02B0EC06E000E94
:10112400026E020E016EEFEC08F01200056E000E66
:10113400026E010E016EEFEC08F005380F0B0F0B79
:10114400836E67EC09F0000E026E050E016EEFEC83
:1011540008F005500F0B836E67EC09F0000E026E69
:10116400010E016EEFEC08F01200000E126E10AECC
:1011740006D00F6C101ED8B0102A010E126E0FC0CC
:1011840001F010C002F0036A8E0E046E12C005F066
:101194009FEC06F001C00FF002C010F003C011F084
:1011A400120080EC09F0000E026E050E016EEFECE9
:1011B40008F00B0EC26E84EC09F0C4CF1BF01C6A5D
:1011C400230E076E060E086E02EC08F01BC015F025
:1011D4001CC016F045EC06F0120002BE12000250CC
:1011E40004E1020E015CD8A01200000E046E000E91
:1011F400036E04BE06D0045007E16F0E035CD8B042
:1012040003D0034A042AF5D70106D8A00206E5D77D
:1012140077EC09F04EC059F04FC05AF059C015F0A0
:101224005AC016F045EC06F0DF0E4FEC09F0430E01
:101234004FEC09F01200000162516311D8A407D0E9
:101244002D0E076E060E086E02EC08F012001C0E3E
:10125400076E060E086E02EC08F012000F50110221
:10126400F3CF13F0F4CF14F00F501202F3501426FE
:1012740010501102F350142613C00FF014C010F0D4
:101284001200086E280E086012000750D8A4088CBB
:10129400088E08505BEC09F01200066E8280000E86
:1012A400026E010E016EEFEC08F0065098EC08F0A7
:1012B4001200066E8290000E026E010E016EEFECBB
:1012C40008F0065098EC08F012008282000E026EBC
:1012D400020E016EEFEC08F0829212005DC015F070
:1012E4005EC016F045EC06F01200000E4F6E1B0EA9
:1012F4004E6E12009EAAFED7AE501200010E5BEC99
:0E13040009F01200C2A21200FDD70100010084
:020000040020DA
:08000000FFFFFFFFFFFFFFFF00
:020000040030CA
:0E000000FF081F1EFF8B80FF0FC00FE00F4098
:00000001FF
